:020000040800F2
:1000000010040020050D0008E10C0008E30C0008B6
:10001000E50C0008E70C0008E90C000800000000EF
:10002000000000000000000000000000EB0C0008D1
:10003000ED0C000800000000EF0C0008F10C0008B7
:10004000310D0008350D0008390D00083D0D000880
:10005000410D0008450D0008490D00084D0D000830
:10006000510D0008550D0008590D00085D0D0008E0
:10007000610D0008650D0008690D00086D0D000890
:10008000710D0008750D0008790D00087D0D000840
:10009000810D0008850D0008890D00088D0D0008F0
:1000A000910D0008950D0008990D00089D0D0008A0
:1000B000A10D00080000000000000000A50D0008D0
:1000C000A90D0008AD0D0008B10D0008B50D000820
:1000D000B90D0008BD0D0008C10D0008C50D0008D0
:1000E000C90D0008CD0D0008000000000000000050
:1000F0000000000000000000000000000000000000
:1001000000000000D10D000800000000D50D00081F
:100110000000000000000000D90D0008DD0D0008FF
:10012000E10D0008E50D0008E90D0008ED0D0008DF
:10013000F10D0008000000000000000000000000B9
:10014000F50D0008F90D0008FD0D00080000000085
:10015000010E0008050E0008090E00080D0E00082B
:10016000110E0008150E0008190E0008000000000E
:100170001D0E0008210E0008000000000000000015
:10018000250E0008290E00082D0E00082DE9FC4759
:1001900005001AD0DFF8C876DFF8D446B86800F05A
:1001A0000C09F86800F003082878C1065BD5B9F19E
:1001B000000F05D0B9F10C0F08BFB8F1010F2ED117
:1001C0003868810703D5A869002800F05A8139688A
:1001D00008074EBF396861680909286A01F0F00113
:1001E000814206D200F001FB002808D100F018FA85
:1001F00007E000F015FA286A00F0F7FA002840F04E
:10020000408100F0A9FABA6800F09CFADFF85806BD
:10021000006800F041FB010000F03781FEE1A869B1
:10022000C0B1396841F00101396000F057FB064662
:100230003868810700F1278100F050FB801B0328FC
:10024000F6D30320EAE100F049FB801B0328C0F04D
:100250005781F6E7386840084000386000F03EFB00
:1002600006463868810740F1108100F037FB801B9B
:100270000328F6D3E5E76868B0F5803F04D1386815
:1002800040F48030386011E0B0F5A02F386806D116
:1002900040F480203860396841F4803105E020F472
:1002A00080303860396821F480213960686860B135
:1002B00000F014FB06463868810300F1F98000F075
:1002C0000DFB801B6528F6D3BBE700F007FB064655
:1002D0003868810340F1EC8000F000FB801B65284A
:1002E000F6D3AEE7E86880B1396841F480713960CF
:1002F00000F0F4FA06463868410500F1EC8000F0A1
:10030000EDFA801B0328F6D39BE7386820F4807051
:10031000386000F0E3FA06463868410540F1E280B3
:1003200000F0DCFA801B0328F6D38AE7400840007F
:10033000606000F0D3FA06466068810740F1E4800F
:1003400000F0CCFA801B0328F6D37AE70528206852
:1003500006D140F004002060216841F0010105E071
:10036000400840002060216821F004012160A86855
:1003700041F2893868B100F0B1FA824620688107FD
:1003800000F1F68000F0AAFAA0EB0A004045F5D390
:1003900057E700F0A3FA82462068810740F1E88021
:1003A00000F09CFAA0EB0A004045F5D349E700F0C5
:1003B00095FA801B0328C0F0EE8042E74008400019
:1003C000A06000F08BFA0646A068810740F1E78044
:1003D00000F084FA801B0328F6D332E700F07EFA9F
:1003E000801B0328C0F0EB802BE700F077FA801B1E
:1003F0000328C0F00E8124E73968080103D4F968A6
:1004000089088900F960F968DFF868040140F9603B
:1004100000F064FA06463868810140F1FE8000F081
:100420005DFA801B0328F6D30BE7012829D0F86872
:10043000EA6A00F00301914201BF00F070012A6BEB
:10044000521EB1EB021F1CD16A6B00F4FE41B1EBEE
:10045000022F02BF00F07841AA6BB1EBC26F10D13E
:10046000EA6B520800F4C001521EB1EB425F08D1A2
:10047000296C490800F0C060491EB0EB416F00F0E4
:10048000CC800120CAE000F0CBF82878C1070FD556
:10049000B9F1080F06D0B9F10C0F08BFB8F1030F7E
:1004A0007FF4E9AE3868810302D568680028E8D097
:1004B0002978880716D5B9F1040F06D0B9F10C0FC9
:1004C00008BFB8F1020F7FF40DAF3868410502D5BF
:1004D000E8680028D5D07868296920F0F85040EA0B
:1004E00001607860287801070ED568690028606887
:1004F0003FF41CAF40F00100606000F0EFF90646E9
:10050000606881077FF59FAE2878410735D5B86DC3
:100510000026C10009D4B86D40F08050B8650126AE
:10052000B86D00F0805000900098DFF84C83D8F848
:100530000000C10513D4D8F8000040F48070C8F85A
:10054000000000F0CBF98246D8F80000C10506D4BF
:1005500000F0C4F9A0EB0A000328F5D371E6A868FF
:1005600001287FF4F3AE206840F001002060FEE631
:100570001EB1B86D20F08050B865287881060ED580
:10058000686A0028A0683FF419AF40F00100A0603D
:1005900000F0A4F90646A06881077FF508AFA86AB5
:1005A000D8B3B9F10C0F3FF440AF0228386820F0FF
:1005B000807038607FF420AF00F090F9064638680C
:1005C00081013FF50BAFFA68DFF8B012E86A0A4024
:1005D000296B0243491E686B42EA0112E96B490824
:1005E00042EA0022286C491E400842EA4152401E5D
:1005F00042EA4062A86B42EAC062FA60396841F0A0
:1006000080713960F86840F08070F86000F066F939
:100610000646386881017FF5E8AE0020BDE8F68720
:10062000386840F0080038603968286A21F0F00125
:10063000014339607968E86921F47F4141EA00218A
:10064000796070472DE9F0410400884678D0DFF8E2
:100650003062306800F00700404509D23168C908AF
:1006600048EAC1013160306800F00700404567D1B9
:100670002078DFF8EC51C1074AD56068032802D121
:1006800029688A0108E0022802D129688A0303E068
:100690000028296802D18A0702D451E04A054FD5C3
:1006A000A968890840EA8100A86000F017F90746A8
:1006B000A868616800F00C00B0EB810F28D000F052
:1006C0000DF9C01B41F289318842F1D303201DE0AE
:1006D0002078410705D5AA68E06822F4E062024369
:1006E000AA602178080706D5A968206921F460511D
:1006F00041EAC001A96000F02FF8AA6800F022F8D2
:10070000BDE8F0415848006800F0C6B8BDE8F08187
:100710002078810705D5AA68A06822F0F00202437C
:10072000AA60316801F007018845D1D23068C0085D
:1007300048EAC0003060316801F007014145C7D088
:100740000120E3E74F49C2F30312895C454A01F0F7
:100750001F01C8401060704770B5414A4A4B90680D
:10076000D6680025002110F00C0006F00306474C67
:1007700003D00C2812D1012E1AD115682E0704D4EB
:100780003A4D2E68C6F3032502E01568C5F303153C
:100790003F4E56F8255048B9294624E0042808BFA2
:1007A000214620D008281ED119461CE00C281AD159
:1007B000D06800F00300022803D0032808BF1D46BC
:1007C00000E02546D168D068D268C0F306204543D2
:1007D000C1F30210C2F34161401C491CB5FBF0F0AB
:1007E0004900B0FBF1F1084670BD7CB5294E0546C5
:1007F00030680024C10002D500F076F80EE03068C1
:1008000040F080503060316801F0805100910098D4
:1008100000F06AF8316821F080513160B0F5007F56
:1008200004D1802D0CD9A12D09D304E0802D88BFDF
:10083000032405D801D1022402E0702D00D1012447
:100840000F480168C90844EAC1010160006800F06E
:100850000700A04201D0012076BD002076BD000037
:10086000001002400C000020040000209410024000
:1008700090100240FFFFEEFE007000408C809D0152
:1008800000200240BC0A000800127A000024F40094
:10089000CC0A00085810024070B50E4E0446B068ED
:1008A0000025A0B14FF47A710B4AB1FBF0F110684A
:1008B000B0FBF1F000F0BDF848B9102C07D20022CF
:1008C00021464FF0FF3000F097F8746000E00125FA
:1008D000284670BD000000200C0000200148006880
:1008E000704700BF00000020DFF8C800006800F477
:1008F000C060704710B5DFF8BC10B0F5007F086825
:1009000000F4C06015D1B0F5007F1BD00868DFF897
:10091000A820DFF8A84020F4C06040F4007000F088
:1009200018F84A6953050FD5002818BF401EF8D1A2
:100930000AE0B0F5806F05D0086820F4C06040F48C
:1009400080600860002010BD48694105FAD5032089
:1009500010BD0860322013684343B3FBF4F0401C21
:10096000704714490A68D208D2000A600128144965
:100970000B6843F004030B600FBF30BF40BF20BFC4
:1009800020BF11E00B490A68D208D20042F00102F0
:100990000A6001280A490A6842F004020A600FBF8F
:1009A00030BF40BF20BF20BF086820F004000860AF
:1009B00070470000007000400C00002040420F0013
:1009C00010ED00E00901020002D424488154704770
:1009D000234B02F00F021A4402F8041C7047214B0B
:1009E00019684FF6FF020002114000F4E06008436E
:1009F0001D4908431860704738B51A4B1C68C4F38A
:100A00000223C3F10704052C28BF04241D1D072D54
:100A100034BF0023DB1E012505FA04F4641E2140C7
:100A2000994005FA03F35B1E1A401143BDE83440B8
:100A3000C8E710B5401EB0F1807F01D3012010BD82
:100A40000A4C60600F214FF0FF30FFF7BBFF002121
:100A5000A16007202060002010BD000000E400E03D
:100A600018ED00E00CED00E00000FA0510E000E0F9
:100A70000E48016841F47001016000220C490868C9
:100A800040F0010008608A604FF480520B6809480A
:100A900003400B60CA6000200B68074A23F48023E0
:100AA0000B6088614FF000611160704788ED00E0D5
:100AB00000100240FFFFF6EA08ED00E00000000031
:100AC000000000000102030406070809A0860100D7
:100AD000400D0300801A060000350C0040420F0054
:100AE00080841E0000093D0000127A000024F400FA
:100AF00000366E010048E801006CDC0280B500F0B1
:100B00002FF800F007F800F03BF80121002000F07A
:100B10003FF8FEE780B596B005A8442100F040F804
:100B20006846142100F03CF801210B91102005903B
:100B3000002250210C920D910F9205A8FFF726FB81
:100B40000F200090002101910291039104916846C9
:100B5000FFF778FD4FF40070FFF7CCFE17B000BD33
:100B6000032010B5FFF73BFF0020FFF795FE0024A0
:100B7000002814BF012400F017F8204610BD000023
:100B80000248016821F002010160704710E000E0B6
:100B9000B0F5804F084608BFFFF7F4BEFFF7E1BE8F
:100BA000002200F019B800000A4881B0816841F0C5
:100BB00001018160816801F00101009100990268E2
:100BC00042F080520260006800F08050009000986F
:100BD00001B070475810024000B500BF13009646A0
:100BE0009446103928BFA0E80C50FAD85FEA417C3F
:100BF00028BF0CC048BF40F8042BC90728BF20F805
:100C0000022B48BF00F8012B00BD30B450F8041B84
:100C100079B10268436802440830DC0744BFA9F197
:100C20000104E31852F8045B43F8045B091FF9D18F
:100C3000ECE730BC7047000010B507497944183123
:100C4000064C7C44163404E00A68081D11448847A9
:100C50000146A142F8D110BD2C0000003C0000006C
:100C60004EF68851CEF20001086840F4700008602A
:100C7000BFF34F8FBFF36F8F4FF00070E1EE100A9C
:100C80007047000087FFFFFF100000008800000091
:100C9000000000200000000000F00DF8002801D046
:100CA000FFF7CAFFAFF300800020AFF30080FFF72B
:100CB00025FF00F002F80120704700F001B80000A5
:100CC0000746384600F002F8FBE7000080B5AFF3B6
:100CD0000080024A11001820ABBEFBE7260002008C
:100CE0007047FEE7FEE7FEE7FEE770477047704794
:100CF00000F000B802490A68886882180A607047E4
:100D0000000000200148804701480047710A0008A0
:100D1000250D000800000000100000000100000088
:100D200000093D00AFF30080FFF79AFFFFF7B4FF23
:100D3000FFF7FEBFFFF7FEBFFFF7FEBFFFF7FEBFE7
:100D4000FFF7FEBFFFF7FEBFFFF7FEBFFFF7FEBFD7
:100D5000FFF7FEBFFFF7FEBFFFF7FEBFFFF7FEBFC7
:100D6000FFF7FEBFFFF7FEBFFFF7FEBFFFF7FEBFB7
:100D7000FFF7FEBFFFF7FEBFFFF7FEBFFFF7FEBFA7
:100D8000FFF7FEBFFFF7FEBFFFF7FEBFFFF7FEBF97
:100D9000FFF7FEBFFFF7FEBFFFF7FEBFFFF7FEBF87
:100DA000FFF7FEBFFFF7FEBFFFF7FEBFFFF7FEBF77
:100DB000FFF7FEBFFFF7FEBFFFF7FEBFFFF7FEBF67
:100DC000FFF7FEBFFFF7FEBFFFF7FEBFFFF7FEBF57
:100DD000FFF7FEBFFFF7FEBFFFF7FEBFFFF7FEBF47
:100DE000FFF7FEBFFFF7FEBFFFF7FEBFFFF7FEBF37
:100DF000FFF7FEBFFFF7FEBFFFF7FEBFFFF7FEBF27
:100E0000FFF7FEBFFFF7FEBFFFF7FEBFFFF7FEBF16
:100E1000FFF7FEBFFFF7FEBFFFF7FEBFFFF7FEBF06
:100E2000FFF7FEBFFFF7FEBFFFF7FEBFFFF7FEBFF6
:0400000508000D25BD
:00000001FF
